:100000000C9434000C9449000C9449000C94490061
:100010000C9449000C9449000C9449000C9449003C
:100020000C9449000C9449000C9449000C9449002C
:100030000C9449000C9449000C9449000C9449001C
:100040000C9449000C9474000C9449000C944900E1
:100050000C9449000C9449000C9449000C944900FC
:100060000C9449000C94490011241FBECFEFD8E036
:10007000DEBFCDBF11E0A0E0B1E0E4EBF1E002C0F3
:1000800005900D92A230B107D9F70E94CB000C94D5
:10009000D8000C94000087E880937A000895877058
:1000A000806480937C00EAE7F0E080818064808354
:1000B00080917A0086FDFCCF809178009091790044
:1000C00008959BB1282F30E0220F331F220F331FDA
:1000D0009370292B2BB995B19C7F82958695869537
:1000E0008370892B85B908951F920F920FB60F92D6
:1000F00011242F933F934F935F936F937F938F932D
:100100009F93AF93BF93EF93FF938EB590910001B0
:100110009923E9F0813419F0823451F012C080E063
:100120000E944F0096958795969587958EBD0CC039
:1001300081E00E944F0096958795969587958EBD94
:1001400003C00E9461001EBC1092000104C081E047
:10015000809300011EBCFF91EF91BF91AF919F91E1
:100160008F917F916F915F914F913F912F910F9060
:100170000FBE0F901F9018950E94CF001EBC8CB52B
:1001800080688CBD0E944B008AB18C6F8AB984B1A3
:10019000836084B908950E94BC007894FFCF84B135
:1001A000806184B984B1837D84B980E48CBD089575
:0401B000F894FFCFF1
:0201B400010048
:00000001FF
