S02200004C4142205920504F53542D4C4142203320284D41455354524F292E7372656379
S11300000C9434000C9451000C9451000C94510045
S11300100C9451000C9451000C9451000C94510018
S11300200C9451000C9451000C9451000C94510008
S11300300C9451000C9451000C9451000C945100F8
S11300400C9451000C9451000C94AA010C9451008E
S11300500C9451000C9451000C9451000C945100D8
S11300600C9451000C94510011241FBECFEFD8E022
S1130070DEBFCDBF11E0A0E0B1E0E4E3F4E002C0F4
S113008005900D92AA37B107D9F721E0AAE7B1E0AC
S113009001C01D92AC37B207E1F70E94FE000C9438
S11300A018020C9400008AB18C6F8AB984B18760FD
S11300B084B985B1846085B908959BB1282F30E057
S11300C0220F331F220F331F9370292B2BB995B1A5
S11300D09C7F8295869586958370892B85B9089532
S11300E008C00E9476018FE891E00197F1F700C003
S11300F000000E948A018111F4CF08950F931F9389
S1130100CF93DF9300D000D01F92CDB7DEB7FE01AE
S1130110319685E0DF011D928A95E9F710E012C05F
S11301200E9476018D3081F08A3071F001E0010F78
S1130130E1E0F0E0EC0FFD1FE10FF11D80830E9470
S11301406F01102F143060F3CE0101960E94BD019F
S1130150282F392F2F3F310511F008F08FEF0F9022
S11301600F900F900F900F90DF91CF911F910F91EF
S11301700895CF93DF9385B18B7F85B981E40E9485
S11301805E018FE891E00197F1F700C0000080E084
S11301900E945E01D82F85B1846085B98FE19EE409
S11301A00197F1F700C0000085B18B7F85B982E427
S11301B00E945E018FE891E00197F1F700C0000012
S11301C080E00E945E01C82F85B1846085B981E01A
S11301D091E00E947D018D2F90E00E94900188E0C3
S11301E091E00E947D018C2F90E00E94900186E2B4
S11301F091E00E947D01DF91CF91089580E895E21E
S11302000E9464010E9455010E9453000E948A01C9
S11302108823D1F10E947601803511F0803751F4A2
S113022080E58093000181E191E00E947D010E94BC
S113023070002AC08C3411F08C3631F58CE4809334
S1130240000189E291E00E947D0183E491E00E9433
S11302507D010E947E00C82F84E691E00E947D010A
S11302608C2F90E00E94900186E291E00E947D0133
S11302708C2F0E945D0085B18B7F85B98C2F0E94E5
S11302805E0185B1846085B980910001803509F0F3
S1130290BDCF0E94B9002FEF89E698E1215080403C
S11302A09040E1F700C00000B1CF84B18C6284B902
S11302B084B18F7E84B981E58CBD08958EBD0DB463
S11302C007FEFDCF8EB508959093C5008093C400BA
S11302D088E98093C10086E08093C20008959091DC
S11302E0C00095FFFCCF8093C60008958091C000A4
S11302F08823E4F78091C6000895CF93DF93EC013F
S113030003C021960E946F0188818111FACFDF9189
S1130310CF9108958091C000881F8827881F089571
S1130320CF93DF9300D000D000D0CDB7DEB74AE042
S1130330BE016F5F7F4F0E94DB01CE0101960E94D8
S11303407D0126960FB6F894DEBF0FBECDBFDF91B8
S1130350CF9108951F920F920FB60F9211248F938D
S11303608091C60080937A0181E080937B018F9114
S11303700F900FBE0F901F901895FC0188279927A6
S1130380E89421912032E9F3293010F02E30C8F39B
S11303902B3241F02D3239F4689404C00E94E601F6
S11303A0820F911D219120532A30C0F31EF49095A1
S11303B081959F4F0895BB274A3031F4992322F445
S11303C0BDE2909581959F4F0C94EF017AE0979F41
S11303D0902D879F802D910D11240895BB27FB013B
S11303E05527AA27880F991FAA1FA41710F0A41B2A
S11303F083955051B9F7A05DAA3308F0A95DA19384
S1130400009779F7B111B1931192CB010C940802C2
S1130410DC01FC01672F71917723E1F7329704C067
S11304207C916D9370836291AE17BF07C8F30895F2
S1070430F894FFCF6A
S113043450504F54313A20002020504F54323A2027
S1130444004D6F646F204C65637475726120416361
S113045474697661646F0D0A004D6F646F2045738F
S11304646372697475726120416374697661646F3F
S11304740D0A00496E677265736520756E20766196
S11304846C6F7220656E7472652030207920323569
S1130494353A20000D0A56616C6F7220636F6E66E4
S10D04A46967757261646F3A200005
S9030000FC
