S02700004C4142203420284553434C41564F202D20504F54454E43494F4D4554524F292E7372656307
S11300000C9434000C9446000C9446000C94460066
S11300100C9446000C9446000C9446000C94460044
S11300200C9446000C9446000C9446000C94460034
S11300300C9446000C9446000C9446000C94460024
S11300400C9446000C9446000C9446000C94460014
S11300500C9446000C9446000C9446000C94460004
S11300600C9464000C94460011241FBECFEFD8E01A
S1130070DEBFCDBF21E0A0E0B1E001C01D92A230FF
S1130080B207E1F70E9491000C94AB000C940000BD
S113009087E880937A0080E480937C000895ECE7FD
S11300A0F0E09081907F8F70892B8083EAE7F0E005
S11300B080818064808380917A0086FDFCCF80916A
S11300C078009091790008951F920F920FB60F92C5
S11300D011248F939F938091B900887F883A19F0F7
S11300E0883B59F014C080910001909101019093D4
S11300F0BB0085EC8093BC000DC080910001909101
S113010001018093BB0085EC8093BC0003C085ECA7
S11301108093BC009F918F910F900FBE0F901F9002
S113012018950E94480082E48093BA0085E4809385
S1130130BC00789480E00E944F009093010180936A
S113014000012FEF80E792E0215080409040E1F7DA
S10D015000C00000EFCFF894FFCFC9
S9030000FC
