:100000000C9434000C9449000C9449000C94490061
:100010000C9449000C9449000C9449000C9449003C
:100020000C9449000C9449000C9449000C9449002C
:100030000C9449000C9449000C9449000C9449001C
:100040000C9449000C9449000C9449000C9449000C
:100050000C9449000C9449000C9449000C944900FC
:100060000C9449000C94490011241FBECFEFD8E036
:10007000DEBFCDBF11E0A0E0B1E0ECE6F1E002C0F0
:1000800005900D92AA30B107D9F70E94A9000C94EF
:10009000B4000C9400008FE78AB98FE38BB9089500
:1000A0008A3038F4E82FF0E0E050FF4F80818BB9C0
:1000B00008951BB80895CF93C82F8A3078F0C9E00F
:1000C0000DC08C2F0E9450002FE784E89EE1215044
:1000D00080409040E1F700C00000C150C111F1CF55
:1000E00080E00E945000CF91089526B1482F30E063
:1000F000082E02C0359527950A94E2F720FF1CC010
:10010000E3EDF0E33197F1F700C0000026B130E0F5
:10011000B90102C0759567958A95E2F760FF0EC038
:1001200086B190E0042E02C0959587950A94E2F777
:1001300080FDF6CF81E0089580E0089580E0089585
:100140000E944B0087B1877F87B988B1877F88B9C4
:1001500008950E94A00083E00E9475008823D9F3CF
:0C01600085E00E945B00F7CFF894FFCF11
:0A016C003F065B4F666D7D077F6F55
:00000001FF
