:100000000C9434000C9451000C9451000C94510049
:100010000C9451000C9451000C9451000C9451001C
:100020000C9451000C9451000C9451000C9451000C
:100030000C9451000C9451000C9451000C945100FC
:100040000C9451000C9451000C9451000C945100EC
:100050000C9451000C9451000C9451000C945100DC
:100060000C9451000C94510011241FBECFEFD8E026
:10007000DEBFCDBF11E0A0E0B1E0E4EBF3E002C0F1
:1000800005900D92AA30B107D9F721E0AAE0B1E0BE
:1000900001C01D92AD30B207E1F70E94A7010C9498
:1000A000D8010C9400008FE78AB987B1877C87B9A3
:1000B00088B1877C88B98AB180688AB984B1876041
:1000C00084B984B1886384B987B1816087B98FE3CB
:1000D0008BB908958BB18F7790910B01913011F40A
:1000E00090E801C090E0892B8BB995B120910B016C
:1000F00081E0223009F080E0987F892B90910B01FC
:10010000933011F492E001C090E0892B90910B01A3
:10011000943009F090E0892B85B985B1877C909166
:100120000A01913011F498E001C090E0892B909180
:100130000A01923011F490E101C090E0892B909176
:100140000A01933011F490E201C090E0892B85B947
:1001500098B120910A0181E0243009F080E09E7F6F
:10016000892B88B908959DEF980F933050F526B1EB
:10017000482F30E0082E02C0359527950A94E2F703
:1001800020FF21C02FEF30E762E021503040604077
:10019000E1F700C0000026B130E0B90102C075955A
:1001A00067958A95E2F760FF10C086B190E0042E53
:1001B00002C0959587950A94E2F780FDF6CF81E01D
:1001C000089580E0089580E0089580E0089581E03A
:1001D00080930C0185E010C0E82FF0E0E050FF4F65
:1001E00090819BB92FEF39E698E121503040904043
:1001F000E1F700C0000081508111EECF8FE38BB991
:1002000082E080930C010895813091F585B1877C5F
:1002100085B988B18E7F88B986E08BB990E01FC020
:100220008BB180688BB985B1876085B92FEF35EACE
:100230008EE0215030408040E1F700C000008BB1DB
:100240008F778BB985B1887F85B92FEF35EA8EE03E
:10025000215030408040E1F700C000009F5F9330A4
:10026000F8F28BB180688BB985B1876085B9089544
:100270008BB18F778BB985B1887F85B98BE58BB9C9
:1002800090E01FC085B1886385B988B1816088B965
:100290002FEF35EA8EE0215030408040E1F700C07A
:1002A000000085B1877C85B988B18E7F88B92FEF32
:1002B00035EA8EE0215030408040E1F700C0000078
:1002C0009F5F9330F8F285B1886385B988B181600A
:1002D00088B9089580910B01843040F480910B011E
:1002E0008F5F80930B010E946A00089580910B013B
:1002F000843031F483E080930C0181E00E9404019A
:10030000089580910A01843040F480910A018F5F42
:1003100080930A010E946A00089580910A01843046
:1003200029F480930C0182E00E94040108958BB1AE
:100330008F778BB915B888B18E7F88B910920B0171
:1003400010920A0110920C018FE38BB908950E945C
:10035000530080910C01823079F018F4882321F049
:10036000F8CF8530E8F0F5CF83E00E94B300882312
:1003700081F30E94E700EDCF84E00E94B300811179
:100380000E946A0185E00E94B30081110E948101F0
:1003900083E00E94B3008823E1F20E949701D9CF45
:1003A00083E00E94B3008823A1F20E949701D1CF7D
:0403B000F894FFCFEF
:0A03B4003F065B4F666D7D077F6F0B
:00000001FF
