S02200004C4142203420284553434C41564F202D20434F4E5441444F52292E737265639A
S11300000C9434000C9446000C9446000C94460066
S11300100C9446000C9446000C9446000C94460044
S11300200C9446000C9446000C9446000C94460034
S11300300C9446000C9446000C9446000C94460024
S11300400C9446000C9446000C9446000C94460014
S11300500C9446000C9446000C9446000C94460004
S11300600C9468000C94460011241FBECFEFD8E016
S1130070DEBFCDBF21E0A0E0B1E001C01D92A230FF
S1130080B207E1F70E9499000C94DC000C94000084
S113009087B1837F87B988B18C6088B98AB18C6352
S11300A08AB98BB1837C8BB908952BB190910001EF
S11300B09F70892F90E0880F991F880F991F922FA6
S11300C0937C892B8BB9089586B180958C700895A3
S11300D01F920F920FB60F9211248F938091B90043
S11300E0887F803841F0883A99F08036C9F485ECED
S11300F08093BC0018C08091BB0080930101809163
S113010001018F708093000185EC8093BC000BC0CB
S1130110809100018093BB0085EC8093BC0003C0F8
S113012085EC8093BC008F910F900FBE0F901F90B1
S113013018950E94480080E48093BA0085E4809377
S1130140BC0078940E946400C82F83FF19C080917A
S113015001018F5F80930101809101018F70809371
S113016000010E94640083FDFCCF2FEF80E792E042
S1130170215080409040E1F700C000000E945500EB
S1130180C2FFE0CF809101018150809301018091F1
S113019001018F70809300010E94640082FDFCCFF6
S11301A02FEF80E792E0215080409040E1F700C0BB
S10F01B000000E945500C6CFF894FFCF59
S9030000FC
