:100000000C9434000C9449000C9449000C94490061
:100010000C9449000C9449000C9449000C9449003C
:100020000C9449000C9449000C9449000C9449002C
:100030000C9449000C9449000C9449000C9449001C
:100040000C9449000C9449000C9449000C9449000C
:100050000C9449000C9449000C9449000C944900FC
:100060000C9449000C94490011241FBECFEFD8E036
:10007000DEBFCDBF11E0A0E0B1E0E4E4FBE002C0F0
:1000800005900D92A633B107D9F70E9439020C945E
:10009000A0050C9400000F931F93CF938B019C013C
:1000A000C42F87B18F7C87B9443079F018F4413080
:1000B00031F023C0403191F04034C9F01EC0E9EB6B
:1000C000F0E080818C7F80831EC0E9EBF0E08081CE
:1000D0008D7F808380818160808315C0E9EBF0E0B3
:1000E00080818E7F80838081826080830CC0E9EB79
:1000F000F0E080818360808306C0E9EBF0E08081DE
:100100008C7F8083C1E060E074E284EF90E0A9011D
:1001100098010E948602CA01B901605171098109E2
:1001200091094C2F50E09A01220F331F032E000C2F
:10013000440B550B0E9486022093B800ECEBF0E0D4
:10014000808184608083CF911F910F91089584EA0C
:100150008093BC008091BC008823E4F7089584E973
:100160008093BC0008958093BB0084E88093BC001A
:100170008091BC008823E4F78091B900887F8831A2
:1001800031F0883231F0803429F481E0089581E043
:10019000089581E00895DC01662331F0ECEBF0E096
:1001A00090819064908305C0ECEBF0E090819F7BA0
:1001B0009083ECEBF0E09081906890839091BC008C
:1001C0009923E4F79091B900987F983511F0903514
:1001D00029F48091BB008C9381E00895892F0895C4
:1001E0008BB182608BB985E08A95F1F700008BB105
:1001F0008D7F8BB98FE891E00197F1F700C0000087
:1002000008959BB1282F30E0220F331F220F331F98
:100210009370292B2BB995B19C7F829586958695F5
:100220008370892B85B90E94F00008959BB19E7F51
:100230009BB90E94010108959BB191609BB90E94F6
:1002400001010895CF93DF93EC0103C021960E9432
:100250001C0188818111FACFDF91CF91089561113E
:1002600002C0805801C080540E941601089581E0A8
:100270000E9416018FE19EE40197F1F700C0000093
:1002800008958AB18FEF8AB984B1836084B92FEF62
:1002900080E792E0215080409040E1F700C00000EC
:1002A0008BB18E7F8BB980E30E9401018FE19EE4C8
:1002B0000197F1F700C0000080E30E9401018FE880
:1002C00091E00197F1F700C0000080E30E94010176
:1002D0008FE891E00197F1F700C0000088E30E94E9
:1002E00001018FE891E00197F1F700C000008CE078
:1002F0000E9401018FE891E00197F1F700C0000032
:1003000086E00E9401018FE891E00197F1F700C0BB
:1003100000000E9437010895EF92FF920F931F9300
:10032000CF93DF93CDB7DEB760970FB6F894DEBFFB
:100330000FBECDBFF82E8B0160E080E00E942F0140
:100340001F92FF9280E091E09F938F931F9280E134
:100350008F93CE0101967C019F938F930E94A802F8
:10036000C7010E94220161E080E00E942F010FB6C8
:10037000F894DEBF0FBECDBF011594E0190710F051
:100380000FEF13E024E6209FC001219F900D112460
:100390006FEF73E00E94720277277F936F931F9332
:1003A0000F938FE091E09F938F931F9280E18F9343
:1003B0008E010F5F1F4F1F930F930E94A802C80169
:1003C0000E9422010FB6F894DEBF0FBECDBF60962B
:1003D0000FB6F894DEBF0FBECDBFDF91CF911F9156
:1003E0000F91FF90EF900895CF93DF931F92CDB7B9
:1003F000DEB719820E94A70081E40E94B300813019
:1004000029F460E0CE0101960E94CB000E94AF006B
:1004100089818F700F90DF91CF9108950F931F9373
:10042000CF93DF9300D0CDB7DEB70E94A70083E45F
:100430000E94B300813089F461E0CE0101960E94F0
:10044000CB0060E0CE0102960E94CB00098110E053
:10045000102F00278A81082B02C000E010E00E94C4
:10046000AF00C8010F900F90DF91CF911F910F91B6
:1004700008950E9441010E94370141E060EA76E858
:1004800081E090E00E944B0060E080E00E942F013C
:1004900089E191E00E94220161E080E00E942F0149
:1004A00085E291E00E9422012FEF83ED90E321503D
:1004B00080409040E1F700C000000E9437010E9498
:1004C000F401C82F0E940E02BC018C2F0E948C01E7
:1004D0002FEF83EC99E0215080409040E1F700C07D
:1004E0000000EDCFAA1BBB1B51E107C0AA1FBB1F19
:1004F000A617B70710F0A61BB70B881F991F5A95B0
:10050000A9F780959095BC01CD010895A1E21A2E1E
:10051000AA1BBB1BFD010DC0AA1FBB1FEE1FFF1FA7
:10052000A217B307E407F50720F0A21BB30BE40BF7
:10053000F50B661F771F881F991F1A9469F760953E
:100540007095809590959B01AC01BD01CF010895F8
:10055000AEE0B0E0EEEAF2E00C9477050D891E897A
:100560008F89988D26E02C831A83098397FF02C018
:1005700080E090E801979E838D83AE01455E5F4FDA
:10058000698D7A8DCE0101960E94D8024D815E81DF
:1005900057FD0AC02F813885421753070CF49A0182
:1005A000F801E20FF31F10822E96E4E00C949305FD
:1005B000ABE0B0E0EEEDF2E00C9469056C017B017C
:1005C0008A01FC0117821682838181FFCCC1CE0192
:1005D00001963C01F6019381F70193FD859193FF0C
:1005E00081917F01882309F4BAC1853239F493FDE2
:1005F000859193FF81917F01853229F4B60190E0C6
:100600000E94CF04E7CF912C212C312CFFE1F31570
:10061000D8F08B3279F038F4803279F08332A1F45B
:10062000232D20611DC08D3261F0803369F4232DAC
:10063000216016C0832D8260382EE32DE4603E2EAB
:100640002AC0F32DF8601DC037FC2DC020ED280F07
:100650002A3040F08E32B9F436FC81C1232D20645B
:10066000322E19C036FE06C08AE0989E200D112455
:10067000922E11C0EAE02E9E200D1124222EF32D81
:10068000F0623F2E08C08C3621F4832D8068382E0E
:1006900002C0883641F4F70193FD859193FF819163
:1006A0007F018111B3CF982F9F7D9554933028F40B
:1006B0000C5F1F4F9FE399830DC0833631F0833762
:1006C00071F0833509F059C021C0F8018081898318
:1006D0000E5F1F4F88248394912C530113C028016F
:1006E000F2E04F0E511CF801A080B18036FE03C02D
:1006F000692D70E002C06FEF7FEFC5010E94C40456
:100700004C018201F32DFF773F2E16C0280122E015
:10071000420E511CF801A080B18036FE03C0692D45
:1007200070E002C06FEF7FEFC5010E94B9044C0179
:10073000F32DF0683F2E820133FC1BC0822D90E028
:1007400088169906B0F4B60180E290E00E94CF04CA
:100750002A94F4CFF50137FC859137FE81915F0132
:10076000B60190E00E94CF0421102A9421E0821A61
:1007700091088114910471F7E8C0843611F089362C
:1007800041F5F80137FE07C0608171818281938154
:100790000C5F1F4F08C060817181072E000C880B11
:1007A000990B0E5F1F4FF32DFF763F2E97FF09C069
:1007B00090958095709561957F4F8F4F9F4FF06812
:1007C0003F2E2AE030E0A3010E940B05882E8618F8
:1007D00045C0853731F4232D2F7EB22E2AE030E03C
:1007E00025C0932D997FB92E8F36C1F018F4883526
:1007F00079F0B5C0803719F0883721F0B0C0E92F03
:10080000E061BE2EB4FE0DC0FB2DF460BF2E09C00A
:1008100034FE0AC0292F2660B22E06C028E030E040
:1008200005C020E130E002C020E132E0F801B7FE6F
:1008300007C060817181828193810C5F1F4F06C068
:100840006081718180E090E00E5F1F4FA3010E94E4
:100850000B05882E8618FB2DFF773F2E36FE0DC028
:10086000232D2E7FA22E891458F434FE0BC032FCA7
:1008700009C0832D8E7EA82E05C0B82CA32C03C0E2
:10088000B82C01C0B92CA4FE0FC0FE01E80DF11D6B
:100890008081803321F49A2D997EA92E09C0A2FE71
:1008A00006C0B394B39404C08A2D867809F0B3943B
:1008B000A3FC11C0A0FE06C0B21488F4280C922C30
:1008C0009B180EC0B21460F4B60180E290E00E9462
:1008D000CF04B394F7CFB21418F42B1802C0982C9D
:1008E000212CA4FE10C0B60180E390E00E94CF044A
:1008F000A2FE17C0A1FC03C088E790E002C088E513
:1009000090E0B6010CC08A2D867859F0A1FE02C095
:100910008BE201C080E2A7FC8DE2B60190E00E946C
:10092000CF04891438F4B60180E390E00E94CF042C
:100930009A94F7CF8A94F301E80DF11D8081B601F6
:1009400090E00E94CF048110F5CF222009F442CE1E
:10095000B60180E290E00E94CF042A94F6CFF6011F
:100960008681978102C08FEF9FEF2B96E2E10C9476
:100970008505FC010590615070400110D8F7809505
:1009800090958E0F9F1F0895FC016150704001905B
:100990000110D8F7809590958E0F9F1F08950F93A3
:1009A0001F93CF93DF93FB01238121FD03C08FEFC2
:1009B0009FEF2CC022FF16C04681578124813581CC
:1009C0004217530744F4A081B1819D012F5F3F4F2F
:1009D000318320838C93268137812F5F3F4F37836C
:1009E000268314C08B01EC01FB010084F185E02D0E
:1009F0000995892BE1F6D80116968D919C91179750
:100A0000019617969C938E931697CE01DF91CF9106
:100A10001F910F910895FA01AA27283051F1203132
:100A200081F1E8946F936E7F6E5F7F4F8F4F9F4F82
:100A3000AF4FB1E03ED0B4E03CD0670F781F891FC4
:100A40009A1FA11D680F791F8A1F911DA11D6A0F92
:100A5000711D811D911DA11D20D009F468943F9145
:100A60002AE0269F11243019305D3193DEF6CF0144
:100A70000895462F4770405D4193B3E00FD0C9F70A
:100A8000F6CF462F4F70405D4A3318F0495D31FD77
:100A90004052419302D0A9F7EACFB4E0A6959795CA
:100AA000879577956795BA95C9F7009761057105A0
:100AB00008959B01AC010A2E0694579547953795EA
:100AC0002795BA95C9F7620F731F841F951FA01D44
:100AD00008952F923F924F925F926F927F928F92E2
:100AE0009F92AF92BF92CF92DF92EF92FF920F93BD
:100AF0001F93CF93DF93CDB7DEB7CA1BDB0B0FB6C7
:100B0000F894DEBF0FBECDBF09942A883988488883
:100B10005F846E847D848C849B84AA84B984C88419
:100B2000DF80EE80FD800C811B81AA81B981CE0F10
:100B3000D11D0FB6F894DEBF0FBECDBFED010895F5
:040B4000F894FFCF57
:100B4400436F6E7461646F723A20253275200050D1
:100B54006F743A20253475200053697374656D6190
:100B64002049324300496E696369616C697A616E38
:060B7400646F2E2E2E001E
:00000001FF
