S0120000504F53542D4C414220322E737265637E
S11300000C9434000C9451000C9451000C94510045
S11300100C9451000C9451000C9451000C94510018
S11300200C9451000C9451000C9451000C94510008
S11300300C9451000C9451000C9451000C945100F8
S11300400C9451000C9451000C94FE040C94510037
S11300500C9451000C9451000C9451000C945100D8
S11300600C9451000C94510011241FBECFEFD8E022
S1130070DEBFCDBF11E0A0E0B1E0EAE9F5E102C0E6
S113008005900D92A631B107D9F721E0A6E1B1E0C0
S113009001C01D92AA31B207E1F70E946E040C94CC
S11300A0CB0A0C94000087E880937A0080E4809364
S11300B07C00089520E040E050E0BA011BC0982F76
S11300C09770906490937C00EAE7F0E090819064EC
S11300D0908390917A0096FDFCCFE0917800F091A6
S11300E079004E0F5F1F611D711D90E19A95F1F724
S11300F000C02F5F203418F3DB01CA01689415F89F
S1130100B695A795979587951694D1F7089545B117
S1130110282F217030E0220F331F81FB992790F99B
S1130120342F3C7F232B292B25B99BB19F7382FF4E
S113013002C020E801C020E0922B83FF02C020E42B
S113014001C020E0922B9BB99BB1937C84FF02C039
S113015024E001C020E0922B85FF02C028E001C00A
S113016020E0922B86FF02C020E101C020E0922B08
S1130170882314F480E201C080E0892B8BB985B117
S1130180877F85B985B1846085B985E08A95F1F763
S1130190000085B18B7F85B98FE39FE10197F1F76B
S11301A000C00000089584B18F6084B98AB18C6F57
S11301B08AB92FEF80E792E0215080409040E1F728
S11301C000C0000088E30E9487008FE496E4019752
S11301D0F1F700C0000088E30E9487008FE496E4F2
S11301E00197F1F700C0000088E30E94870087E5CB
S11301F092E00197F1F700C000008CE00E948700B4
S113020086E00E94870081E00E9487008FE19EE4DF
S11302100197F1F700C00000089545B1282F21701F
S113022030E0220F331F81FB992790F9342F3C7F54
S1130230232B292B25B99BB19F7382FF02C020E891
S113024001C020E0922B83FF02C020E401C020E023
S1130250922B9BB99BB1937C84FF02C024E001C024
S113026020E0922B85FF02C028E001C020E0922B01
S113027086FF02C020E101C020E0922B882314F401
S113028080E201C080E0892B8BB985B1886085B993
S113029085B1846085B985E08A95F1F7000085B160
S11302A08B7F85B98FE891E00197F1F700C00000DA
S11302B00895CF93DF93EC0103C021960E940D01B2
S11302C088818111FACFDF91CF910895611102C025
S11302D0805801C080540E948700089581E00E94E4
S11302E087008FE19EE40197F1F700C000000895B4
S11302F04F925F926F927F928F929F92AF92BF9232
S1130300EF92FF920F931F93CF93DF93CDB7DEB796
S11303102A970FB6F894DEBF0FBECDBFF62EE42E9B
S1130320009709F441C08A3F23E0920708F040C0D7
S1130330BC0180E090E00E942B0620E030E040EA1F
S113034050E40E94E20620E030EC4FE754E40E94BF
S113035083054B015C012FE832EC45EF5DE30E941D
S11303607E0588238CF5A50194016FE872EC85EF76
S11303709DE30E9411052AE939E949E95FE30E94F6
S1130380E2062B013C019B01AC01C501B4010E94B2
S1130390DD061816B4F4A3019201C501B4010E944C
S11303A011054B015C0110C0812C912C54010CC02F
S11303B00F2E812C912CF0EAAF2EF0E4BF2EF02DFD
S11303C003C0812C912C540120E030E048EC52E42D
S11303D0C501B4010E94E2060E944F0720E030E00C
S11303E048EC52E40E9483054B015C012AE037ED9E
S11303F043E25CE30E947E0588231CF4812C912C4B
S11304005401C501B4010E94FC058B0180E090E019
S11304100E942B069B01AC01C501B4010E94110589
S113042020E030E048EC52E40E94E20620E030E0B4
S113043040E05FE30E9412050E94FC05AB016436B4
S1130440710520F00F5F1F4F40E050E0005D09830D
S11304508EE28A839A01ADECBCEC0E94B007FC01E9
S1130460F695E795F695E795F695E79580E38E0F73
S11304708B83CF01880F991FEE0FFF1FEE0FFF1F15
S1130480EE0FFF1FE80FF91F4E1B5F0B405D4C83FF
S113049086E58D831E826E2D8F2D0E946601CE010E
S11304A001960E9459012A960FB6F894DEBF0FBE3A
S11304B0CDBFDF91CF911F910F91FF90EF90BF902F
S11304C0AF909F908F907F906F905F904F90089522
S11304D0CF93DF93EC01888199810D9738F520E063
S11304E0A0E0B0E01DC0962F9770906490937C00BC
S11304F0EAE7F0E090819064908390917A0096FD11
S1130500FCCF40917800509179004730510508F4B0
S1130510119687EC90E00197F1F700C000002F5F7F
S11305202A3008F3189710F019821882DF91CF91BE
S113053008950F931F93CF93DF9300D000D0CDB7CE
S1130540DEB7162F042F9923ACF49F938F9380E08A
S113055091E09F938F931F9284E08F93CE01019635
S11305609F938F930E94D3070FB6F894DEBF0FBEFC
S1130570CDBF14C09F938F9380E091E09F938F939E
S11305801F9284E08F93CE0101969F938F930E94D4
S1130590D3070FB6F894DEBF0FBECDBF602F812FF7
S11305A00E946601CE0101960E9459010F900F909E
S11305B00F900F90DF91CF911F910F9108958B327F
S11305C0B9F4809116019091170101969093170147
S11305D0809316018091160190911701883E9340F3
S11305E0FCF087EE93E09093170180931601089531
S11305F08D32B1F480911601909117010197909377
S113060017018093160180911601909117018D397D
S11306109F4F34F48DE99FEF909317018093160157
S113062008954F925F926F927F928F929F92AF92B2
S1130630BF92CF92DF92EF92FF920F931F93CF93CB
S1130640DF93CDB7DEB7A0970FB6F894DEBF0FBE29
S1130650CDBF8B01009709F441C08A3F23E0920784
S113066008F040C0BC0180E090E00E942B0620E02E
S113067030E040EA50E40E94E20620E030EC4FE72C
S113068054E40E9483056B017C012FE832EC45EFB2
S11306905DE30E947E0588238CF5A70196016FE82F
S11306A072EC85EF9DE30E9411052AE939E949E9D5
S11306B05FE30E94E2064B015C019B01AC01C701B0
S11306C0B6010E94DD061816B4F4A5019401C70111
S11306D0B6010E9411056B017C0110C0C12CD12C04
S11306E076010CC00F2EC12CD12CF0EAEF2EF0E4D1
S11306F0FF2EF02D03C0C12CD12C7601011511055C
S113070009F441C00A3F83E0180708F040C0B8016B
S113071080E090E00E942B0620E030E040EA50E4C4
S11307200E94E20620E030EC4FE754E40E94830587
S11307302B013C012FE832EC45EF5DE30E947E057E
S113074088238CF5A30192016FE872EC85EF9DE399
S11307500E9411052AE939E949E95FE30E94E206AA
S11307604B015C019B01AC01C301B2010E94DD0697
S11307701816B4F4A5019401C301B2010E94110535
S11307802B013C0110C0412C512C32010CC00F2E06
S1130790412C512CF0EA6F2EF0E47F2EF02D03C093
S11307A0412C512C3201C701B6010E94F5054B01C1
S11307B05C01072E000C880B990B0E942D069B01EF
S11307C0AC01C701B6010E94110520E030E048ECFD
S11307D052E40E94E20620E030E040E05FE30E9441
S11307E012050E94F5058B01C301B2010E94F505B3
S11307F06B017C01072E000C880B990B0E942D06BF
S11308009B01AC01C301B2010E94110520E030E05C
S113081048EC52E40E94E20620E030E040E05FE36E
S11308200E9412050E94F5052B013C0143E5498312
S113083081E38A833AE33B8320E22C8380E3880DBF
S11308408D830F2EFEE2BF2EF02DBE82EAE0F0E093
S1130850C801BF010E949C07605D6F83805D88872B
S113086016E519872A872B872C872D874E8782E3E5
S11308708F87388B298B80E38C0D8A8BBB8AC201CE
S1130880BF010E949C07605D6C8B805D8D8B1E8B0D
S11308901F8A10E003C00E94F7041F5FE1E0F0E04C
S11308A0EC0FFD1FE10FF11D80818111F4CFA096A3
S11308B00FB6F894DEBF0FBECDBFDF91CF911F916D
S11308C00F91FF90EF90DF90CF90BF90AF909F90EB
S11308D08F907F906F905F904F900895CF93DF93A8
S11308E000D000D0CDB7DEB784B1816084B985B1C2
S11308F0816085B90E94D3002FEF81EE94E02150EE
S113090080409040E1F700C000000E946E010E9408
S1130910530087E690E00E94EC04789460E080E065
S11309200E94660184E091E00E94590111E086E092
S11309300E945A009C838B8387E00E945A009A830A
S1130940898366E0CE0103960E94680267E0CE01C7
S113095001960E94680241E060E08B819C810E94C4
S1130960780141E067E089819A810E947801809151
S113097016019091170141E06DE00E949902809167
S11309801901882331F0809118010E94DF0210922E
S11309901901112371F08DE00E94F7048AE00E948E
S11309A0F70469817A818B819C810E94110310E094
S11309B009C08DE00E94F70469817A818B819C8152
S11309C00E9411032FEF83EC99E021508040904066
S11309D0E1F700C00000ABCF9093C5008093C40042
S11309E088E98093C10086E08093C20008959091C5
S11309F0C00095FFFCCF8093C60008951F920F920C
S1130A000FB60F9211248F938091C6008093180122
S1130A1081E0809319018F910F900FBE0F901F906A
S1130A2018955058BB27AA270E9429050C94A306A1
S1130A300E94950638F00E949C0620F039F49F3FEE
S1130A4019F426F40C9492060EF4E095E7FB0C944A
S1130A508C06E92F0E94B40658F3BA17620773078D
S1130A608407950720F079F4A6F50C94D6060EF4C5
S1130A70E0950B2EBA2FA02D0B01B90190010C01AA
S1130A80CA01A0011124FF27591B99F0593F50F4C2
S1130A90503E68F11A16F040A22F232F342F44271A
S1130AA0585FF3CF469537952795A795F040539512
S1130AB0C9F77EF41F16BA0B620B730B840BBAF0E2
S1130AC09150A1F0FF0FBB1F661F771F881FC2F74D
S1130AD00EC0BA0F621F731F841F48F48795779561
S1130AE06795B795F7959E3F08F0B0CF9395880F1B
S1130AF008F09927EE0F9795879508950E94680648
S1130B0008F481E008950E9497050C94A3060E94BE
S1130B109C0658F00E94950640F029F45F3F29F0A6
S1130B200C948C0651110C94D7060C9492060E94D6
S1130B30B40668F39923B1F3552391F3951B550B30
S1130B40BB27AA2762177307840738F09F5F5F4F9C
S1130B50220F331F441FAA1FA9F335D00E2E3AF0DB
S1130B60E0E832D091505040E695001CCAF72BD0F3
S1130B70FE2F29D0660F771F881FBB1F2617370744
S1130B804807AB07B0E809F0BB0B802DBF01FF2776
S1130B9093585F4F3AF09E3F510578F00C948C06C1
S1130BA00C94D7065F3FE4F3983ED4F3869577958B
S1130BB06795B795F7959F5FC9F7880F911D96952F
S1130BC0879597F90895E1E0660F771F881FBB1F8B
S1130BD0621773078407BA0720F0621B730B840B38
S1130BE0BA0BEE1F88F7E09508950E94FC056894FF
S1130BF0B1110C94D70608950E94BC0688F09F5743
S1130C0098F0B92F9927B751B0F0E1F0660F771F2C
S1130C10881F991F1AF0BA95C9F714C0B13091F022
S1130C200E94D606B1E008950C94D606672F782F5B
S1130C308827B85F39F0B93FCCF3869577956795E7
S1130C40B395D9F73EF490958095709561957F4F53
S1130C508F4F9F4F0895E89409C097FB3EF49095F9
S1130C608095709561957F4F8F4F9F4F9923A9F081
S1130C70F92F96E9BB279395F69587957795679510
S1130C80B795F111F8CFFAF4BB0F11F460FF1BC054
S1130C906F5F7F4F8F4F9F4F16C0882311F096E9E7
S1130CA011C0772321F09EE8872F762F05C0662395
S1130CB071F096E8862F70E060E02AF09A95660F4E
S1130CC0771F881FDAF7880F9695879597F9089507
S1130CD0990F0008550FAA0BE0E8FEEF1616170649
S1130CE0E807F907C0F012161306E407F50798F0B1
S1130CF0621B730B840B950B39F40A2661F0232BCA
S1130D00242B252B21F408950A2609F4A140A69545
S1130D108FEF811D811D089597F99F6780E870E02A
S1130D2060E008959FEF80EC089500240A9416165D
S1130D30170618060906089500240A9412161306C5
S1130D40140605060895092E0394000C11F4882353
S1130D5052F0BB0F40F4BF2B11F460FF04C06F5F6F
S1130D607F4F8F4F9F4F089557FD9058440F551F45
S1130D7059F05F3F71F04795880F97FB991F61F019
S1130D809F3F79F087950895121613061406551F90
S1130D90F2CF4695F1DF08C0161617061806991FFC
S1130DA0F1CF86957105610508940895E894BB27F1
S1130DB066277727CB0197F908950E94680608F4FF
S1130DC08FEF08950E94F5060C94A3060E949506E1
S1130DD038F00E949C0620F0952311F00C948C06A8
S1130DE00C94920611240C94D7060E94B40670F356
S1130DF0959FC1F3950F50E0551F629FF001729FBC
S1130E00BB27F00DB11D639FAA27F00DB11DAA1FCA
S1130E10649F6627B00DA11D661F829F2227B00D17
S1130E20A11D621F739FB00DA11D621F839FA00DA2
S1130E30611D221F749F3327A00D611D231F849FF2
S1130E40600D211D822F762F6A2F11249F57504049
S1130E509AF0F1F088234AF0EE0FFF1FBB1F661FC4
S1130E60771F881F91505040A9F79E3F510580F08D
S1130E700C948C060C94D7065F3FE4F3983ED4F3AD
S1130E80869577956795B795F795E7959F5FC1F731
S1130E90FE2B880F911D9695879597F908950E94CA
S1130EA0BC06E8F09E37E8F09639B8F49E3848F46A
S1130EB0672F782F8827985FF9CF86957795679560
S1130EC093959539D0F3B62FB1706B0F711D811DB9
S1130ED020F487957795679593950C9473070C94F4
S1130EE08E070C94D706882371F4772321F0985049
S1130EF0872B762F07C0662311F499270DC09051D4
S1130F00862B70E060E02AF09A95660F771F881FA1
S1130F10DAF7880F9695879597F908959F3F31F0F2
S1130F20915020F4879577956795B795880F911D13
S1130F309695879597F9089597FB072E16F40094D4
S1130F4007D077FD09D00E94BF0707FC05D03EF407
S1130F50909581959F4F0895709561957F4F089561
S1130F60A29FB001B39FC001A39F700D811D1124E6
S1130F70911DB29F700D811D1124911D0895AA1B0E
S1130F80BB1B51E107C0AA1FBB1FA617B70710F070
S1130F90A61BB70B881F991F5A95A9F780959095A2
S1130FA0BC01CD010895AEE0B0E0E9EDF7E00C94AA
S1130FB0A20A0D891E898F89988D26E02C831A83B5
S1130FC0098397FF02C080E090E801979E838D8398
S1130FD0AE01455E5F4F698D7A8DCE0101960E9408
S1130FE003084D815E8157FD0AC02F813885421761
S1130FF053070CF49A01F801E20FF31F10822E96A6
S1131000E4E00C94BE0AABE0B0E0E9E0F8E00C9454
S1131010940A6C017B018A01FC0117821682838188
S113102081FFCCC1CE0101963C01F6019381F70109
S113103093FD859193FF81917F01882309F4BAC1BF
S1131040853239F493FD859193FF81917F01853237
S113105029F4B60190E00E94FA09E7CF912C212CE3
S1131060312CFFE1F315D8F08B3279F038F480326B
S113107079F08332A1F4232D20611DC08D3261F0FB
S1131080803369F4232D216016C0832D8260382EAD
S1131090E32DE4603E2E2AC0F32DF8601DC037FC1A
S11310A02DC020ED280F2A3040F08E32B9F436FCE2
S11310B081C1232D2064322E19C036FE06C08AE079
S11310C0989E200D1124922E11C0EAE02E9E200D30
S11310D01124222EF32DF0623F2E08C08C3621F409
S11310E0832D8068382E02C0883641F4F70193FDC1
S11310F0859193FF81917F018111B3CF982F9F7DBB
S11311009554933028F40C5F1F4F9FE399830DC0CF
S1131110833631F0833771F0833509F059C021C02B
S1131120F801808189830E5F1F4F88248394912C5A
S1131130530113C02801F2E04F0E511CF801A080A6
S1131140B18036FE03C0692D70E002C06FEF7FEFFF
S1131150C5010E94EF094C018201F32DFF773F2E58
S113116016C0280122E0420E511CF801A080B18073
S113117036FE03C0692D70E002C06FEF7FEFC5013A
S11311800E94E4094C01F32DF0683F2E820133FCE8
S11311901BC0822D90E088169906B0F4B60180E257
S11311A090E00E94FA092A94F4CFF50137FC859166
S11311B037FE81915F01B60190E00E94FA09211087
S11311C02A9421E0821A91088114910471F7E8C0ED
S11311D0843611F0893641F5F80137FE07C0608185
S11311E07181828193810C5F1F4F08C0608171817E
S11311F0072E000C880B990B0E5F1F4FF32DFF7603
S11312003F2E97FF09C090958095709561957F4F0B
S11312108F4F9F4FF0683F2E2AE030E0A3010E94D9
S1131220360A882E861845C0853731F4232D2F7E43
S1131230B22E2AE030E025C0932D997FB92E8F3647
S1131240C1F018F4883579F0B5C0803719F08837C3
S113125021F0B0C0E92FE061BE2EB4FE0DC0FB2D1D
S1131260F460BF2E09C034FE0AC0292F2660B22EB6
S113127006C028E030E005C020E130E002C020E1F3
S113128032E0F801B7FE07C06081718182819381E9
S11312900C5F1F4F06C06081718180E090E00E5F9B
S11312A01F4FA3010E94360A882E8618FB2DFF7754
S11312B03F2E36FE0DC0232D2E7FA22E891458F406
S11312C034FE0BC032FC09C0832D8E7EA82E05C0CF
S11312D0B82CA32C03C0B82C01C0B92CA4FE0FC099
S11312E0FE01E80DF11D8081803321F49A2D997E51
S11312F0A92E09C0A2FE06C0B394B39404C08A2DDB
S1131300867809F0B394A3FC11C0A0FE06C0B21401
S113131088F4280C922C9B180EC0B21460F4B60109
S113132080E290E00E94FA09B394F7CFB21418F463
S11313302B1802C0982C212CA4FE10C0B60180E307
S113134090E00E94FA09A2FE17C0A1FC03C088E73E
S113135090E002C088E590E0B6010CC08A2D867842
S113136059F0A1FE02C08BE201C080E2A7FC8DE22D
S1131370B60190E00E94FA09891438F4B60180E3BA
S113138090E00E94FA099A94F7CF8A94F301E80D49
S1131390F11D8081B60190E00E94FA098110F5CF19
S11313A0222009F442CEB60180E290E00E94FA09BC
S11313B02A94F6CFF6018681978102C08FEF9FEFC2
S11313C02B96E2E10C94B00AFC0105906150704048
S11313D00110D8F7809590958E0F9F1F0895FC01FA
S11313E06150704001900110D8F7809590958E0F50
S11313F09F1F08950F931F93CF93DF93FB012381C6
S113140021FD03C08FEF9FEF2CC022FF16C0468141
S11314105781248135814217530744F4A081B18157
S11314209D012F5F3F4F318320838C932681378129
S11314302F5F3F4F3783268314C08B01EC01FB01E0
S11314400084F185E02D0995892BE1F6D8011696E3
S11314508D919C911797019617969C938E9316974E
S1131460CE01DF91CF911F910F910895FA01AA2720
S1131470283051F1203181F1E8946F936E7F6E5FD3
S11314807F4F8F4F9F4FAF4FB1E03ED0B4E03CD081
S1131490670F781F891F9A1FA11D680F791F8A1F64
S11314A0911DA11D6A0F711D811D911DA11D20D0CB
S11314B009F468943F912AE0269F11243019305D85
S11314C03193DEF6CF010895462F4770405D419376
S11314D0B3E00FD0C9F7F6CF462F4F70405D4A33C3
S11314E018F0495D31FD4052419302D0A9F7EACF8B
S11314F0B4E0A6959795879577956795BA95C9F7BA
S113150000976105710508959B01AC010A2E0694AC
S11315105795479537952795BA95C9F7620F731F65
S1131520841F951FA01D08952F923F924F925F92A2
S11315306F927F928F929F92AF92BF92CF92DF92DF
S1131540EF92FF920F931F93CF93DF93CDB7DEB744
S1131550CA1BDB0B0FB6F894DEBF0FBECDBF0994D8
S11315602A88398848885F846E847D848C849B842F
S1131570AA84B984C884DF80EE80FD800C811B813D
S1131580AA81B981CE0FD11D0FB6F894DEBF0FBE6C
S10D1590CDBFED010895F894FFCFDC
S113159A2533640053313A2020202053323A202044
S10915AA2053333A000057
S9030000FC
